S01700007A61706F6365745F766F7479706B612E73726563AA
S11300000C9434000C94EC000C9400010C945100FA
S11300100C9451000C9451000C9451000C94510018
S11300200C9451000C9451000C9451000C94510008
S11300300C9451000C9451000C9451000C945100F8
S11300400C9451000C9451000C9451000C945100E8
S11300500C9451005B005E006100640067006A005C
S11300606D0070007300760011241FBECFE5D8E048
S1130070DEBFCDBF10E0A0E6B0E0E0E9F2E002C0F0
S113008005900D92A236B107D9F720E0A2E6B0E0C0
S113009001C01D92A436B207E1F70E94A1000C949E
S11300A046010C9400008A30910510F5FC01E65DD0
S11300B0FF4F0C942C0120EC30E01AC029EF30E003
S11300C017C024EA30E014C020EB30E011C029E965
S11300D030E00EC022E930E00BC022E830E008C076
S11300E028EF30E005C020E830E002C020E930E02D
S11300F0C90108956150710921E030E002C0220F66
S1130100331F6A95E2F7209525BB0E9453008BBBF1
S11301108FE99FE00197F1F700C000000895CF93A5
S1130120DF93EC0162E070E0888199810E947A009B
S113013061E070E08A819B810E947A00DF91CF9117
S11301400895CF93DF9300D000D0CDB7DEB7789475
S11301508FEF8ABB84BB11BA8BBB85BB1A82198211
S11301601C821B8285B78F6085BF80EC8BBF8EB5E8
S113017084608EBD00E010E00F2EFAE0EF2EF12C2B
S1130180F02D8091620090916300019701F58CB588
S11301909DB583319A4730F480916000909161005D
S11301A00197A9F41DBC1CBC109261001092600060
S11301B0C801B7010E9418017A8369839C838B83E9
S11301C00F5F1F4F0436110511F400E010E0CE015B
S11301D001960E948F00D5CF1F920F920FB60F92F7
S11301E011248F939F9381E090E090936300809318
S11301F062009F918F910F900FBE0F901F901895E2
S11302001F920F920FB60F9211248F939F93109207
S113021063001092620081E090E09093610080930B
S113022060009F918F910F900FBE0F901F901895B3
S113023097FB072E16F4009407D077FD09D00E948F
S1130240320107FC05D03EF4909581959F4F0895A7
S1130250709561957F4F0895EE0FFF1F0590F491FF
S1130260E02D0994AA1BBB1B51E107C0AA1FBB1FA9
S1130270A617B70710F0A61BB70B881F991F5A952E
S1130280A9F780959095BC01CD010895F894FFCF0E
S1050290010067
S9030000FC
